:020000040800F2
:10000000C005002001010008C31A0008B31400084D
:10001000C11A000861020008512100080000000018
:100020000000000000000000000000000B1E00089F
:10003000BD02000800000000C51A00080D1E0008DF
:100040001B0100081B0100081B0100081B01000820
:100050001B0100081B010008F10300081B01000838
:100060001B010008F70300081B0100081B01000822
:100070001B0100081B0100081B0100081B010008F0
:100080001B0100081B0100081B0100081B010008E0
:100090001B0100081B0100081B0100081B010008D0
:1000A0001B010008711E00081B0100081B0100084D
:1000B0007D1E0008891E0008000000001B010008CA
:1000C0001B01000800000000000000001B010008E8
:1000D000000000001B0100081B01000800000000D8
:1000E0001B0100081B0100081B010008DFF80CD0F1
:1000F00000F06CF80048004755260008C0050020B5
:100100000648804706480047FEE7FEE7FEE7FEE7B1
:10011000FEE7FEE7FEE7FEE7FEE7FEE76D1E0008EE
:10012000ED000008202A04DB203A21FA02F0002129
:10013000704721FA02F3D040C2F1200291400843F7
:1001400019467047D2B201E000F8012B491EFBD2DC
:1001500070470022F6E710B513460A4604461946D2
:10016000FFF7F0FF204610BD2DE9F05F05460020A7
:1001700092469B4688460646814640241BE0284618
:10018000414647462246FFF7CDFF53465A46C01A1E
:10019000914110D311461846224600F029F82D1A35
:1001A00067EB01084F4622460120002100F020F8AD
:1001B00017EB00094E41201EA4F10104DFDC484684
:1001C00031462A464346BDE8F09F0000064C074DE5
:1001D00006E0E06840F0010394E807009847103417
:1001E000AC42F6D3FFF786FFA4270008C427000817
:1001F000202A04DB203A00FA02F1002070479140E7
:10020000C2F1200320FA03F3194390407047000025
:1002100010B50B4C0821204600F0E0FA60B108212F
:10022000204600F0DBFA012808D100222046BDE874
:100230001040082100F0D7BA0122F7E710BD0000F6
:1002400000080140054B30B1012806D101220821E8
:10025000184600F0C8BA0022F9E7704700080140CC
:10026000FEE7000010B5134C217849B12046012962
:10027000808801D002291BD1BDE8104001F05CBD8F
:1002800061780D4859B10022202100F0ACFA00201D
:1002900001F042FD6078BDE8104001F066BD01222A
:1002A000202100F0A0FABDE81040012001F034BD8B
:1002B00010BD00001C000020000801407047FF2016
:1002C000401EFDD270470000344910B50A786AB16B
:1002D000A1F10C03012A1AD0022A17D1012200240D
:1002E0009C605C6058B3012827D028E04A7810B1A0
:1002F000012802D002E0521C00E0521E0F2A01DB4E
:100300000F2202E0002A00DC00224A7010BD8A7829
:1003100010B1012802D002E0521C00E0521E002A57
:1003200000DC00221878824200DB0246D0B21C4A70
:10033000887032F81000888010BD4FF0FF32174BE4
:1003400088799B8830B1012809D002280ED0032873
:1003500013D018E002EB820003EB400012E002EB46
:10036000C20000EB021003EB80000BE002EB420046
:10037000C0EBC21003EBC00004E040F27120424326
:1003800003EB02108880888842F63022904203D224
:1003900041F6B0529042CFD88A8010BD1C00002098
:1003A0009401002004488179491CC9B28171032954
:1003B00001D90021817170471C0000200120FFF746
:1003C00083BF0020FFF780BF70B50C4605460221B1
:1003D000064800F003FA012803D0AC46BDE870409F
:1003E0006047A446BDE8704060470000000C014033
:1003F000012000F007B9082000F004B972B6FEE74A
:100400002DE9F04F584B0A21584A1C78584F59484B
:10041000FF25CCB142F2107C4FF47A794FF0640A98
:100420004FF0060B012C26D0022C22D1A3F10C0494
:100430006668761C6660FA2E5FDDA6684FF00008DD
:10044000F6B3012E55D056E05B78B3FBF1F4B4FB64
:10045000F1F601FB1644145D0470B3FBF1F401FBEB
:100460001431515C417002214554491C0729FBDDC0
:100470003D70BDE8F08F00240555641C012CFBDDA8
:100480009C78B4FBF1F5B5FBF1F601FB1655555D13
:100490008570B4FBF1F501FB1545555DC570364D12
:1004A00035F814409C80B4FBFCF3B3FBF1F501FB81
:1004B0001533D35C0371B4FBF9F3B3FBF1F500E042
:1004C00014E001FB1533D35C4371B4FBFAF3B3FBC7
:1004D000F1F501FB1533D35C8371B4FBF1F3B3FB8E
:1004E000F1F401FB1431515CC17139E00126A660C1
:1004F00001E0C4F80880C4F8048000268555761C05
:10050000032EFBDD9E88B6FBFCFCBCFBF1F801FB77
:1005100018CC12F80CC080F804C0B6FBF9FCBCFB88
:10052000F1F801FB18CC12F80CC080F805C0B6FB3E
:10053000FAFCBCFBF1F8B6FBF1F601FB18CC12F8A3
:100540000CC080F806C0B6FBF1FC01FB1C61515CDD
:10055000C171A168012903D19979C1F107014554FD
:1005600087F800B085E700001C00002094270008F1
:100570005E000020560000209401002010B50E4CB3
:1005800000212078401CC0B22070022801D92170BF
:1005900003E010B1022807D00AE0052001F030FB8B
:1005A00000F00F00607003E0A17101F01FFBA0805C
:1005B000BDE8104002F030B81C00002070B50446C1
:1005C00000F016F90546601C02D004480078044487
:1005D00000F00EF9401BA042FAD370BD00000020CD
:1005E000012804D0082806D1034801F047B8034980
:1005F0000348FFF7E9BE704717260008BD0300084F
:10060000C3030008044910B50A68024202D008601A
:10061000FFF7E6FF10BD0000140401402DE9F84F7C
:10062000DFF89C91002409F1040A0AF1040B234627
:100630000F270BF1040EBBE00125A5402A40AA427A
:1006400076D1DFF880C14E68A6EB0C0866452BD04A
:100650000DDC032E34D005DC36B3012E19D0022E6A
:100660002FD11BE0112E16D0122E2AD119E0B8F589
:10067000881F19D006DCB8F5803F15D0B8F5801F6B
:100680001FD111E0B8F5001F0ED0B8F5041F18D126
:100690000AE0CB6815E0CB681B1D12E0CB6808337D
:1006A0000FE0CB680C330CE08B682BB1012B4FF0C3
:1006B000080303D0456104E0042302E0056100E083
:1006C0000023FF2A01D8064601E000F104064FEAA4
:1006D000840501D9A5F12005D6F8008007FA05FCAC
:1006E00028EA0C0803FA05F548EA0508C6F8008070
:1006F0004D68ED005BD5344DAE6946F00106AE6144
:10070000AD6924F0030605F0010500952F4D06EBB9
:10071000050CDCF80850A607360F07FA06F825EA9C
:100720000805DFF8AC80404503D14FF0000810E029
:100730003DE0DFF8A080404502D14FF0010808E01D
:10074000DFF89480404502D14FF0020801E04FF0FD
:10075000030808FA06F848EA0508CCF808804D684E
:10076000D9F80060ED034D4601D5164300E09643ED
:100770002E604D68DAF80060AD03554601D516438A
:1007800000E096432E604D68DBF80060ED025D46A8
:1007900001D5164300E096432E604D68DEF80060F8
:1007A000AD02754601D5164300E096432E60641CE9
:1007B0000A6832FA04F57FF43FAFBDE8F88F000015
:1007C0000004014000001110001002400000014030
:1007D00000080140000C0140001001408068084002
:1007E00000D0012070470AB1016170470904FBE79E
:1007F00001488068704700000000002002488168BE
:10080000027811448160704700000020074810B54D
:10081000016841F010010160032000F075F800202C
:1008200000F006F800F024F8002010BD002002407F
:1008300070B50D4D04464FF47A712878B1FBF0F095
:100840000A490968B1FBF0F000F0F0FA48B9102C41
:1008500007D200222146501E00F036F800206C60BE
:1008600070BD012070BD0000000000200C000020C1
:100870000C4808B5816941F001018161816901F08D
:1008800001010091C16941F08051C161C06900F06E
:10089000805000900448416821F0E06141F000710F
:1008A000416008BD0010024000000140002809DB43
:1008B00000F01F02012191404009800000F1E0207A
:1008C000C0F8001170470000F0B40E4B1B680C46D6
:1008D000C3F30223C3F10705042D00D90425191D14
:1008E000072901D2002300E0DB1E012606FA05F1EC
:1008F000491E214099409E40761E16403143F0BC6F
:1009000001F038BC0CED00E0064900F00702086871
:100910004FF6FF03184040EA0220034A10430860E4
:10092000704700000CED00E00000FA052DE9F047EB
:100930000F46050061D0434E306800F00700B84212
:1009400009D2306820F0070038433060306800F08A
:100950000700B84251D128683B4C810712D54007A7
:1009600003D5606840F4E06060602878000703D534
:10097000606840F4605060606068A96820F0F00032
:10098000084360602878C00728D06868012810D024
:100990002168022810D0890700292EDA616821F029
:1009A000030101436160FFF723FF804641F288396C
:1009B0000DE021688903EFE78901EDE7FFF718FFF4
:1009C000A0EB0801494502D90320BDE8F087606823
:1009D000696800F00C00B0EB810FEFD1306800F0D7
:1009E0000700B8420BD9306820F007003843306068
:1009F000306800F00700B84201D00120E5E7287810
:100A0000400705D56068E96820F4E060084360604D
:100A10002878000706D56068296920F4605040EA0C
:100A2000C100606000F038F86168084AC1F3031142
:100A3000515CC8400649086006480068FFF7F8FEA8
:100A40000020C2E700200240001002407C2700087E
:100A50000C00002004000020044805490068496893
:100A6000044AC1F30221515CC84070470C000020C9
:100A7000001002408C2700080448054900684968B6
:100A8000044AC1F3C221515CC84070470C000020E9
:100A9000001002408C27000813A185B00FC98DE813
:100AA0000F0015A0154A00680490516801F00C0071
:100AB000042804D0082804D0114805B07047114814
:100AC000FBE7C1F38343C9031DF8030009D551684F
:100AD00004AAC1F34041515C0A4A5043B0FBF1F013
:100AE000EBE709494843E8E702030405060708095C
:100AF0000A0B0C0D0E0F1010010200000010024036
:100B000000127A00001BB70000093D002DE9F84FE4
:100B1000040070D02078C04DC00749D06868C0F389
:100B20008100012807D06868C0F38100022809D13C
:100B30006868C00306D52868800339D56068002836
:100B4000E7D035E06068B0F5803F0BD010B1B0F56C
:100B5000A02F11D0286820F480302860286820F465
:100B6000802002E0286840F480302860606890B1FE
:100B7000FFF73EFE06460AE0286840F48020286021
:100B8000F0E700BFFFF734FE801B642873D82868A5
:100B90008003F7D50CE0FFF72BFE064605E000BF0B
:100BA000FFF726FE801B6428F0D828688003F7D45E
:100BB00020789A4E80074FF001094FF0000839D590
:100BC000686810F00C0F07D06868C0F38100022835
:100BD00009D16868C00306D42868800714D5206945
:100BE000012808D110E02069B0B1C6F80090FFF7E5
:100BF000FFFD074605E00AE1FFF7FAFDC01B0228EA
:100C0000C4D828688007F7D52868616920F0F80003
:100C100040EAC10028600DE0C6F80080FFF7E8FD5B
:100C2000074604E0FFF7E4FDC01B022823D828682C
:100C30008007F7D4207800072CD57948A169D9B16D
:100C4000C0F80090FFF7D4FD074604E0FFF7D0FDA1
:100C5000C01B02280FD8686A8007F7D571484FF487
:100C6000FA510068B0FBF1F0009000BF0098411EFF
:100C70000091FAD20EE080E0C0F80080FFF7B8FDE6
:100C8000074604E0FFF7B4FDC01B022875D8686A68
:100C90008007F7D42078400760D5E8690027C000B6
:100CA00008D4E86940F08050E861E869012700F065
:100CB000805000905C480168C90513D401688346E0
:100CC00041F480710160FFF793FD824606E000BFAA
:100CD000FFF78EFDA0EB0A0064284ED8DBF8000079
:100CE000C005F5D5E06801280AD008B1052813D061
:100CF000286A20F001002862286A20F0040002E03F
:100D0000286A40F001002862E06841F2883B98B10F
:100D1000FFF76EFD82460BE0286A40F0040028626F
:100D2000EEE700BFFFF764FDA0EB0A0159455AD872
:100D3000286A8007F6D50CE0FFF75AFD824605E0E9
:100D4000FFF756FDA0EB0A0159454CD8286A8007E9
:100D5000F6D41FB1E86920F08050E861E06988B3FB
:100D60006968C1F38101022944D00228C6F8608075
:100D700004D0FFF73DFD044638E034E0FFF738FDCE
:100D8000074604E0FFF734FDC01B02282BD8286873
:100D90008001F7D4206AB0F5803F05D16868A1686A
:100DA00020F4003008436860D4E90801084369680A
:100DB00021F4741108436860C6F86090FFF718FDCD
:100DC000044606E025E000BFFFF712FD001B0228E5
:100DD00009D828688001F7D51BE000BFFFF708FDA0
:100DE000001B022802D90320BDE8F88F2868800183
:100DF000F4D40EE00128F7D06868226A00F480314C
:100E0000914204D1616A00F47010884201D001203F
:100E1000EAE70020E8E7000000100240000042423C
:100E2000800442420C0000200070004010B5401EBB
:100E3000B0F1807F01D3012010BD4FF0E02460614C
:100E40000F21601701F096F90020A06107202061B2
:100E5000002010BD7047704770B590F83C20012A03
:100E600023D0012480F83C40022280F83D20036812
:100E70005A689D6822F070060A6832435A600C4B2B
:100E800002689A4205D0B2F1804F02D0094B9A42D3
:100E900004D1496825F080031943916080F83D40F2
:100EA000002180F83C10084670BD022070BD000093
:100EB000002C01400004004010B5040003D094F859
:100EC0003D0010B107E0012010BD002084F83C0077
:100ED000204600F01FF8022084F83D00211D206804
:100EE00000F0D8FF012084F8460084F83E0084F822
:100EF0003F0084F8400084F8410084F8420084F800
:100F0000430084F8440084F8450084F83D00002044
:100F100010BD000008B51E4A01681E4891420ED15E
:100F2000816941F4006181618069002200F4006000
:100F3000009011461920FFF7C7FC192013E0B1F10A
:100F4000804F14D0144A914220D1C16941F002016E
:100F5000C161C069002200F00200009011461D200E
:100F6000FFF7B2FC1D20BDE80840FFF79FBCC16938
:100F700041F00101C161C069002200F00100009050
:100F800011461C20FFF7A0FC1C20ECE708BD000068
:100F9000002C0140001002400004004090F83D1079
:100FA000012901D001207047022180F83D1000681E
:100FB0000949884205D0B0F1804F02D007498842E4
:100FC00004D1816801F00701062903D0016841F0CE
:100FD0000101016000207047002C01400004004026
:100FE00090F83D10012901D001207047022180F8BE
:100FF0003D100168CA6842F00102CA6000680A49EF
:10100000884205D0B0F1804F02D00849884204D10F
:10101000816801F00701062903D0016841F0010150
:101020000160002070470000002C014000040040D7
:1010300001680A6A41F211131A4207D10A6A9B1029
:101040001A4203D10A6822F001020A60012180F8E5
:101050003D100020704770B5044690F83C00012810
:1010600017D0012584F83C50022084F83D00206808
:10107000826822F0770222F47F428260086850285A
:1010800030D00DDC20284DD005DC98B310283BD1A2
:1010900048E0022070BD302844D0402834D139E0E7
:1010A000602828D0702806D0B0F5805F2CD0B0F52D
:1010B000005F29D10AE0CB68D1E90121206800F066
:1010C00017FF2068816841F0770109E0CB68D1E91A
:1010D0000121206800F00CFF2068816841F4804104
:1010E000816011E0CA684968206800F013FF502150
:1010F000206807E016E0CA684968206800F01BFF16
:101100006021206800F0FEFE84F83D50002084F845
:101110003C0070BDCA684968206800F0FBFE4021B1
:101120002068EFE7226801461046EBE7704770B58C
:101130000446006801694FF00005C943890715D4CA
:10114000C168C943890711D4E91E016101202077D4
:10115000206880698007204602D0FFF7E7FF04E09F
:1011600000F098F8204600F096F82577206801698D
:10117000C943490717D4C168C943490713D46FF05D
:1011800004010161022020772068806910F4407F0B
:10119000204602D0FFF7CAFF04E000F07BF82046AB
:1011A00000F079F8257720680169C943090716D44A
:1011B000C168C943090712D46FF008010161042016
:1011C00020772068C0698007204602D0FFF7AEFF75
:1011D00004E000F05FF8204600F05DF82577206815
:1011E0000169C943C90617D4C168C943C90613D4E4
:1011F0006FF010010161082020772068C06910F4A9
:10120000407F204602D0FFF791FF04E000F042F853
:10121000204600F040F8257720680169C943C907D6
:1012200008D1C168C943C90704D1891E016120469C
:1012300000F032F820680169C943090609D4C16881
:10124000C943090605D46FF0800101612046FFF70C
:1012500001FE20680169C943490609D4C168C94330
:10126000490605D46FF040010161204600F05EF8A8
:1012700020680169C94389060BD4C168C94389063E
:1012800007D46FF0200101612046BDE87040FFF7F0
:10129000E2BD70BD70477047174910B5154A09780F
:1012A00090421DD1A9B1FFF7ABF8144A1449154873
:1012B00000F07AFA114A1449144800F075FA0F4AFE
:1012C0001349144800F070FA0C4A1349134800F00F
:1012D0006BFA13480178BDE81040124800F07CBE5C
:1012E000114A904205D1002903D0BDE8104001F019
:1012F00093B910BDC000002054000020172600083C
:1013000011020008240000207D05000830000020A4
:10131000A503000848000020650200083C000020EA
:101320005E0000205600002008010020704770B5C4
:10133000040004D094F83D00002510B106E001201F
:1013400070BD84F83C50204600F022F8242084F838
:101350003D002068C16821F40051C160204600F0C2
:1013600069FE2068016921F49041016120684169AA
:1013700021F02A0141612068C16841F40051C16037
:101380002564202084F83D0084F83E00002070BDD4
:1013900030B585B000240094019402940394006851
:1013A0001449884224D11448816941F48041816103
:1013B000816901F480410491816941F004018161F6
:1013C00080690E4D00F0040004904FF4007000900E
:1013D000022001900320039069462846FFF71EF97A
:1013E0002815CDE90004694628460294FFF716F94E
:1013F00005B030BD00380140001002400008014037
:101400002DE9F843044690F83D001F4616460D4668
:1014100020284CD1C5B1BEB194F83C00012846D07B
:10142000012084F83C004FF00008C4F840802120DF
:1014300084F83D00FFF7DCF9A6848146E684A068C5
:10144000B0F5805F03D004E00120BDE8F883206997
:1014500028B12E465FF0000584F83C800EE000269F
:10146000FAE78021204600F041FEA0B9AEB116F89F
:10147000010B21684860E08C401EE084E08C4B4604
:101480004FF0000200970028EBD14FF040012046BA
:1014900000F02CFE30B10320D7E735F8020BC0F383
:1014A0000800E6E7202084F83D000020CDE7022078
:1014B000CBE7FEE710B50B4C002280212046FFF75A
:1014C00092F9012240212046FFF78DF9FEF7F7FE41
:1014D000012280212046FFF786F9BDE81040FEF783
:1014E000EEBE0000000C01402DE9F041144E07460D
:1014F00008250024012280213046FFF774F916E008
:101500006006040E012240213046FFF76CF9FEF719
:10151000D6FE80213046FFF761F908B1641CE4B2C1
:10152000002240213046FFF75EF9FEF7C8FE6D1E2F
:10153000EDB2E5D2384600F069F82046BDE8F0810A
:10154000000C014070B505460824114E18E028062D
:1015500001D5012200E0002280213046FFF743F947
:10156000FEF7ADFE012240213046FFF73CF9FEF7C1
:10157000A6FE002240213046FFF735F96806050E29
:10158000641EE4B2E3D2BDE8704000F021B8000070
:10159000000C014010B50D4C012280212046FFF7C0
:1015A00022F9012240212046FFF71DF9FEF787FEB0
:1015B000002280212046FFF716F9FEF780FE204624
:1015C0000022BDE810404021FFF70DB9000C01409A
:1015D00070B50D4D012280212846FFF704F9FEF772
:1015E0006EFE012240212846FFF7FDF8FEF767FE58
:1015F00080212846FFF7F2F80446002240212846C1
:10160000FFF7F1F8204670BD000C014010B50D4CFD
:10161000012814D0002280212046FFF7E4F8FEF7CD
:101620004EFE012240212046FFF7DDF8FEF747FE7F
:1016300020460022BDE810404021FFF7D4B8012227
:10164000E9E70000000C01400B48017871B1012965
:101650000ED0022909D18179491CC9B281710329AF
:1016600003D9032181710121017070470221FBE739
:1016700000210170817170471C0000202DE9F041AC
:1016800080463B4801263B4D07780024AFB12946F0
:101690000B6800F10C010A1D012F13D0022F25D178
:1016A0005B6A40F2E737A3F26D2C8360BC452ED213
:1016B00003795B0003F0FE0331E006702D48FFF76D
:1016C0006DFC4DE05D6A40F2CF77A5F5405CACF172
:1016D000D50C02268560BC450AD206705C62C470D7
:1016E00000228C54521C042AFBDB0471BDE8F081FB
:1016F000A5F520550B3DBD420470F7D2C670002001
:10170000155C0D54401C0428FADB5C62EEE7A3F282
:10171000D763BB4227D203795B0043F00103037117
:1017200043785B1C4370DBB2082B06D3447083788C
:101730000779CF545B1C837004718378042B0FD31B
:10174000447084700470C670047100200B5C1354E4
:10175000401C0428FADB0748FFF76AFC4046804734
:1017600028684462C2E70470447084700471F7E72B
:1017700060000020780000200A48017851B101295A
:101780000BD0022905D18179491E01D500210170B4
:10179000817170470121017070470221017003219E
:1017A000F6E700001C0000202DE9F0410F4604463A
:1017B000818816460068FFF711F8002508B9A0795E
:1017C000A8B1A1882068FFF709F801281DD1A079E8
:1017D00001281AD1207A401CC0B220720A2814D9DC
:1017E0002572A571E571B446BDE8F0416047207AE5
:1017F000401CC0B220720A2807D925720120A071AE
:10180000E071BC46BDE8F0416047BDE8F0810000F2
:101810002DE9F04186B000254048009501950295DC
:101820000395816941F020018161816901F0200106
:101830000491816941F004018161816901F0040131
:101840000491816941F0080181618069344F00F0A1
:1018500008000490012207213846FEF7C4FF002249
:1018600068213846FEF7BFFFDFF8B8800122C021AB
:101870004046FEF7B8FF01240720CDE90004032607
:10188000CDE9024669463846FEF7C8FE68208DE875
:1018900031000220039069463846FEF7BFFE4FF440
:1018A000C870CDE90005694602943846FEF7B6FED9
:1018B0001D486946CDE9004040460294FEF7AEFE61
:1018C0001220CDE90005694602944046FEF7A6FEC7
:1018D000082000901548CDE9010469464046FEF70E
:1018E0009DFEC020009001AA112082E86100694697
:1018F0004046FEF793FE002203210620FEF7E4FF98
:101900000620FEF7D3FF002211460920FEF7DCFF78
:101910000920FEF7CBFF06B0BDE8F08100100240C1
:1019200000080140000C01400000111000002110CF
:1019300010B586B000241A480094019402940394D0
:1019400004941649059401604721C0E901144FF63B
:10195000FF71C0E903148021C0E90541FFF7ACFA2B
:1019600008B1FEF74BFD4FF48050009069460C48DB
:10197000FFF771FB08B1FEF741FD049404A9084884
:101980000594FFF769FA08B1FEF738FD0448FFF740
:1019900027FB0348FFF702FB06B010BD002C0140F7
:1019A0007800002010B586B00024194800940194F6
:1019B0000294039404944FF080410594016040F236
:1019C000CF21C0E90114C721C0E903148461FFF7E6
:1019D00073FA08B1FEF712FD4FF48050009069468B
:1019E0000B48FFF738FB08B1FEF708FD049404A983
:1019F00007480594FFF730FA08B1FEF7FFFC0448EA
:101A0000FFF7EEFA0248FFF7C9FA06B010BD000072
:101A1000C000002010B586B000241A48009401943C
:101A200002940394049416490594016041F61F4101
:101A3000C0E9011442F21071C0E903148461FFF798
:101A40003BFA08B1FEF7DAFC4FF48050009069468B
:101A50000C48FFF700FB08B1FEF7D0FC049404A982
:101A600008480594FFF7F8F908B1FEF7C7FC0548E8
:101A7000FFF7B6FA0348FFF791FA06B010BD000071
:101A800000040040080100200C4810B50A4901601C
:101A90004FF4E1314160002181600C22C160C0E956
:101AA00004128161C161FFF742FC002803D0BDE848
:101AB0001040FEF7A3BC10BD0038014050010020CB
:101AC000FEE7FEE7704770B50646032000F098F881
:101AD000C0F3810042F6302140B141F6B0550128F3
:101AE00007D0022809D003280AD02FE042F2FC14C4
:101AF00004E02C4642F28C350DE02C460D460AE0FF
:101B0000072000F07DF8400AC00702D041F66414B7
:101B100001E041F28834032000F072F810F0030075
:101B200006D0012806D0022806D0032806D00DE0F2
:101B30000A2004E0052002E0142000E0502006FB0B
:101B4000004080B2A84201D8A04200D2002070BD5F
:101B500070B50646032000F053F8C0F3810042F64A
:101B6000302140B141F6B055012807D0022809D0F4
:101B700003280AD02CE042F2FC1404E02C4642F286
:101B80008C350DE02C460D460AE0072000F038F8B1
:101B9000400AC00702D041F6641401E041F28834E3
:101BA000032000F02DF810F0030006D0012806D025
:101BB000022806D0032806D00AE00A2004E0052007
:101BC00002E0142000E02820A64201D3AE4201D951
:101BD000002070BD311B91FBF0F080B270BD10B5DC
:101BE0000B2000F00DF8C0F3002010BD10B50A2046
:101BF00000F006F8BDE81040C0F30900FFF763BF2E
:101C000070B505460024FFF7C5FC2220FFF79AFCBB
:101C10002846FFF797FCFFF7BDFC2320FFF792FC57
:101C20000020FFF761FC60F307040120FFF75CFC74
:101C300060F30F24FFF73EFC60BA70BD70B500255D
:101C40000320FFF7DDFFC0F3810042F6302148B1E9
:101C500041F6B054012808D002280AD003280BD03E
:101C6000002070BD42F2FC1004E0204642F28C34A9
:101C70000DE020460C460AE00720FFF7C1FF400AAE
:101C8000C00702D041F6641001E041F2883000F054
:101C900053F86420FEF792FC0E4E0AE000F01CF8A8
:101CA0000A20FEF78BFCFFF7A1FF26F815006D1C3C
:101CB000ADB2FFF79BFFA042F0D16420FEF77EFC9F
:101CC000FFF78DFF20B900206D1EADB226F815007C
:101CD000284670BD9401002010B50320FFF790FF47
:101CE00020F01001032000F04FF80220FFF788FFDA
:101CF00040F46071022000F047F802E00120FEF796
:101D00005DFC0A20FFF77CFF4004F7D5FFF76EFF6C
:101D1000BDE8104000F010B810B504460220FFF7EF
:101D20006FFF14B120F4804101E040F48041BDE830
:101D30001040022000F028B810B5FFF709FF044654
:101D40000320FFF75DFF00F03F01C4F3090041EA03
:101D5000801040F010042146032000F015F82146C1
:101D6000BDE81040032000F00FB810B50446052070
:101D7000FFF746FF04F00F0120F00F000143BDE81C
:101D800010400520AFF3008070B506460C0ACDB2B6
:101D9000FFF700FC2220FFF7D5FB3046FFF7D2FB10
:101DA0002046FFF7CFFB2846FFF7CCFBBDE870408D
:101DB000FFF780BB10B502210846FFF7E5FF322090
:101DC000FEF7FCFB4CF201010220FFF7DDFF4FF4B0
:101DD0001670FEF7F3FB18210320FFF7D5FF4FF431
:101DE00080610420FFF7D0FF48F2AD610520FFF7C6
:101DF000CBFF4FF400410620FFF7C6FFBDE81040BF
:101E000045F61A710720FFF7BFBF7047FEF7F6BC13
:101E100030B58FB028216846FEF79BF914210AA837
:101E2000FEF797F901210804CDE90010002402947F
:101E300002250491CDE90750000109906846FEF79C
:101E400065FE08B172B6FEE70F20CDE90A054FF432
:101E50008060CDE90C4002210AA80E94FEF766FDD1
:101E6000002801D072B6FEE70FB030BD7047000009
:101E70000148FFF75CB90000780000200148FFF737
:101E800056B90000C00000200148FFF750B900001B
:101E90000801002070B50268134B144C4FF08046C7
:101EA000984203D0B04201D0A04203D122F0700585
:101EB0004A682A43984203D0B04201D0A04203D1DD
:101EC00022F44074CA6822434C6922F08002224303
:101ED00002608A68C2620A688262984201D1096916
:101EE00001630121416170BD002C014000040040EC
:101EF00010B5846842EA032224F47F440A43224353
:101F0000826010BD826822F070020A4342F007012D
:101F10008160704710B5036A046A24F0010404620A
:101F2000846924F0F00444EA021423F00A020A430C
:101F30008461026210BD10B5036A23F010030362CE
:101F40008369046A23F4704343EA023224F0A00355
:101F500043EA01118261016210BD0F20401EFDD2D3
:101F60007047000010B50446012A0BD04FEA01006B
:101F700000F00CF88020E04000F008F8BDE81040C8
:101F800000F048B801F07F00F2E7000070B5114E94
:101F900005460824280601D5012200E0002204217C
:101FA0003046FEF720FC6806050EFFF7D6FF00223C
:101FB00001213046FEF717FCFFF7CFFF0122114643
:101FC0003046FEF710FCFFF7C8FF641E14F0FF0454
:101FD000E0D170BD0008014010B50D4C0246C1F1C2
:101FE00007032078C0F107018342515C01D101222F
:101FF00000E00022FFF7B6FF2078401CC0B220703E
:10200000072801D900202070BDE8104000F002B878
:102010005500002010B5064C002202212046FEF794
:10202000E2FB20460122BDE810400221FEF7DBBBA7
:102030000008014070B5044600680169E26821F4B7
:102040004051114301612169A06808436169084357
:102050002168CA6841F20C639A430243CA6020684F
:102060004169A26921F44071114341611E49206810
:10207000884202D1FEF700FD01E0FEF7EDFC00EB27
:10208000C00101EB0012606864218000B2FBF0F334
:10209000B3FBF1F36FF018067343B2FBF0F5B2FB3C
:1020A000F0F605EB8305322303EB0515B5FBF1F5DF
:1020B000B6FBF1F605F0F00505EB0615B2FBF0F600
:1020C000B2FBF0F0B0FBF1F06FF01802504306EBFA
:1020D000800003EB0010B0FBF1F0216800F00F006E
:1020E0002844886070BD0000003801402DE9F041AF
:1020F000984617460E460446069D1DE0681C1BD0F8
:102100002DB1FEF775FBA0EB0800A84214D920689A
:10211000C16821F4D071C1602068416921F00101DA
:102120004161202084F83D0084F83E00002084F8BE
:102130003C000320BDE8F0812068006836EA00001A
:1021400004D00020B842D9D00020F3E70120F9E7FD
:10215000FEE700000FB4054B10B503A9044A02982E
:1021600000F028F810BC5DF814FB00003D260008C4
:10217000740000200907090E002804DB00F1E020AC
:1021800080F80014704700F00F0000F1E02080F8A4
:10219000141D704702E008C8121F08C1002AFAD1B6
:1021A00070477047002001E001C1121F002AFBD1D7
:1021B000704700002DE9FF4F8DB00F460546002601
:1021C00006E025280BD0DDE90F1290476D1C761C28
:1021D00028780028F5D111B03046BDE8F08F0024F2
:1021E000A246A1460122EC4900E0044315F8013F54
:1021F000203B02FA03F00842F7D128782A2810D0B1
:102200006FF02F022878A0F13001092914D80AEBC9
:102210008A0102EB410144F0020400EB010A6D1C4B
:10222000F0E701CF5FEA000A03D544F40054CAF195
:10223000000A44F002046D1C28782E2817D115F8E6
:10224000010F44F004042A280ED06FF02F022878E2
:10225000A0F1300109290AD809EB890102EB4101FB
:1022600000EB01096D1CF2E757F8049B6D1C287800
:102270006C280FD006DC4C2817D068280DD06A28AF
:1022800014D104E0742810D07A280FD10DE044F462
:1022900000140AE044F4801401E044F44014697826
:1022A000814202D104F580146D1C6D1C2A786E2ABF
:1022B0001FD00CDC632A31D004DC002A8BD0582AD2
:1022C00011D1A3E0642A68D0692A0CD165E0732A91
:1022D0002ED004DC6F2A73D0702A04D19BE0752ABB
:1022E0006FD0782A6ED01046DDE90F129047761C29
:1022F00050E1C4F30250022806D0032809D0042874
:1023000001CF09D0066045E101CFF117C0E90061B6
:1023100040E101CF06803DE106703BE117F8040B78
:102320008DF8000000208DF80100EB46012003E04D
:1023300057F804BB4FF0FF3061074FF0000102D4A3
:102340000DE008F10101884649450FDA8045F8DBC8
:102350001BF808100029F4D108E008F101018846B3
:102360008142FADB1BF808100029F6D1DDE90F23C2
:10237000AAEB08008146214600F036F9304400EB14
:10238000080604E0DDE90F121BF8010B9047B8F1D5
:102390000108F7D221464846F7E00A21C4F3025368
:1023A0004FF0000B0891022B04D001CFC117032B73
:1023B00009D00AE0FF1D27F00707F7E8020108E04F
:1023C00032E01FE020E000B2C117042B01D140B27F
:1023D000C117031E71F1000307DA4FF0000CD0EBB8
:1023E0000C006CEB01012D2302E0230504D52B2307
:1023F0008DF82430012303E0E30701D02023F7E721
:10240000984658E00A2110E010210EE010204FF00D
:10241000000B08900CE010214FF0000B44F0040476
:102420004FF00809089103E008214FF0000B0891D4
:10243000C4F30253022B04D001CF0021032B06D09A
:1024400006E0FF1D27F00707F7E8020103E080B26E
:10245000042B00D1C0B24FF0000823072BD5702AFF
:1024600007D0DDF820C08CF0100C5CEA0B0C05D016
:102470000EE040238DF82430012308E050EA0103E8
:1024800006D030238DF824308DF82520022398467D
:10249000DDF820C08CF0080C5CEA0B0C0BD150EA84
:1024A000010301D1630706D530238DF824304FF0A6
:1024B0000108A9F10109582A04D038A20B9208AAF0
:1024C0000A920BE03AA2F9E75B46089AFDF74CFE48
:1024D0000B9B9B5C0A9A521E0A92137050EA0102EF
:1024E000F2D10A98ADEB000000F1200B600702D595
:1024F00024F4803401E04FF00109D94502DDA9EB55
:102500000B0000E0002000EB0B0141440890AAEB17
:10251000010AE00306D4DDE90F232146504600F00E
:1025200063F806444FF0000908E009A911F8090012
:10253000DDE90F12904709F10109761CC145F4DB72
:10254000E0030CD5DDE90F232146504600F04CF89E
:10255000064404E0DDE90F1230209047761C08990C
:10256000481E08900029F5DC08E00A980A990078CE
:10257000491C0A91DDE90F129047761CBBF100015E
:10258000ABF1010BF1DC21465046DDE90F2300F0F1
:1025900019F806446D1C1BE609280100303132335E
:1025A000343536373839616263646566000000008F
:1025B0003031323334353637383941424344454679
:1025C000000000002DE9F041044600251E46174694
:1025D000880404D405E039462020B0476D1C641EF1
:1025E000F9D52846BDE8F0812DE9F04104460025E3
:1025F0001E469046C80301D5302700E020278804F6
:1026000004D505E041463846B0476D1C641EF9D537
:102610002846BDE8F081704710B5FFF7E0FA0146A3
:102620000548012905D00022BDE810404021FEF7F1
:10263000DAB80122F8E700000008014013B54FF6B0
:10264000FF73012269460248FEF7DAFE00981CBDBE
:10265000500100200025FEF7D9F8FFF7D9FBFFF75E
:10266000D7F8FFF711FAFFF763F9FFF79BF9FFF7C8
:10267000D1F9FFF79FFB4FF4FA70FDF79FFF02209F
:10268000FFF773FB3220FDF799FFFFF7D7FA2849D0
:10269000401E087042F6AE10FFF74EFB25490120A0
:1026A0000870FDF7CFFDFFF7B7FFDFF88C80234FF1
:1026B000002638780028FCD0214800F055F8214940
:1026C0000446884202D1FFF757F825E01E488442AD
:1026D00002D1FEF7B9FF1FE01C48844202D1FDF78A
:1026E00070FE19E01A48844202D1FDF767FE13E03C
:1026F000184884420ED01848844202D1FDF788FD64
:102700000AE01648844207D198F8011069B188F8A8
:1027100001603546FDF7A6FD214611A0FFF71AFD21
:102720006420FDF74BFF3E70C3E788F80150F1E7E6
:1027300010000020540000201C0000206300002036
:102740006C000020A55AFF00EF10FF00E718FF0003
:10275000B54AFF00C738FF009768FF004FB0FF0081
:10276000253038580D0A00000246002001460302B9
:10277000505C491C18430429F9DB70470000000035
:102780000000000001020304060708090000000021
:1027900001020304C0F9A4B0999282F88090888362
:1027A000C6A1868EC4270008000000207800000023
:1027B000942100083C28000878000020480500000B
:1027C000A42100080100000010000000000000002B
:1027D0000024F4000A0000000000000000000000D7
:1027E00002000200AE2900000008014010000000B5
:1027F0000000000000080140800000000000000010
:10280000000801400001000000000000000C014031
:1028100010000000000000000000BFBFBFBFBFBF2E
:10282000BFBFFF000000000000000000000000002B
:0C2830000000000000000000000000009C
:04000005080000ED02
:00000001FF
